:020000040800F2
:10000000000002200D0001088D3100089B3100081E
:10001000A1310008A7310008AD3100080000000040
:10002000000000000000000000000000B3310008E4
:10003000C131000800000000CF310008DD310008A8
:100040008B0001088100010881000108810001087E
:100050008100010881000108810001088100010878
:10006000810001088100010881000108E9310008D0
:10007000F9310008810001088100010881000108B0
:1000800081000108810001080D320008810001088B
:10009000193300088100010881000108810001086E
:1000A0008100010881000108810001088100010828
:1000B0008100010881000108810001088100010818
:1000C0008100010881000108810001088100010808
:1000D00089000108810001088100010881000108F0
:1000E0004D330008810001088100010881000108EA
:1000F00081000108810001088100010881000108D8
:1001000081000108810001088100010881000108C7
:1001100081000108810001088100010881000108B7
:1001200081000108810001088100010881000108A7
:100130008100010881000108810001088100010897
:100140008100010881000108810001085D33000879
:100150008100010881000108810001088100010877
:100160008100010881000108810001088100010867
:100170008100010881000108810001088100010857
:100180008100010881000108810001088100010847
:1001900081000108000000008100010881000108C1
:1001A0008100010881000108810001088100010827
:1001B0008100010881000108810001088100010817
:1001C0008100010881000108810001088100010807
:0801D000810001088100010813
:1001D80080B586B000AFF86087ED020AC7ED010A66
:1001E80097ED027AD7ED017A77EE677AC7ED057A4F
:1001F800FB6893ED027AFB68D3ED016AD7ED057AC7
:1002080066EEA77A77EE277AFB68C3ED027AFB6879
:10021800D3ED027AFB6893ED037AF0EE470AB0EE6D
:10022800670A00F021FEF0EE407AFB68C3ED027A1F
:10023800FB6893ED007AD7ED057A27EE277AFB68FD
:10024800D3ED027A77EE277AFB6893ED047AF0EE25
:10025800470AB0EE670A00F007FEF0EE407AB0EE0B
:10026800670A1837BD4680BD80B586B000AFF86014
:1002780087ED020AC7ED010A97ED027AD7ED017AF8
:1002880077EE677AC7ED057AFB68D3ED077A97EDC5
:10029800057A77EE677AC7ED047AFB687A69DA61DE
:1002A800FB6893ED047AFB68D3ED036AD7ED057A12
:1002B80066EEA77A77EE277AFB68C3ED047AFB68C7
:1002C800D3ED047AFB6893ED057AF0EE470AB0EEB9
:1002D800670A00F0C9FDF0EE407AFB68C3ED047AC6
:1002E800FB6893ED017AD7ED057A27EE277AFB684C
:1002F800D3ED047A37EE277AFB68D3ED026AD7ED9F
:10030800047A66EEA77A77EE277AFB6893ED067A89
:10031800F0EE470AB0EE670A00F0A6FDF0EE407A6C
:10032800B0EE670A1837BD4680BD000080B58AB0B8
:1003380000AF78607B6803F5875304331A687B68DD
:1003480003F5875304331B681B6804331B68104686
:10035800984700F0A9FD03461A467B6803F58753C2
:100368001A604FF0A043D3F880309AB27B6803F547
:1003780084531C331A80D24BD3F880309AB27B68EE
:1003880003F584531E331A80CE4BD3F880309AB2CB
:100398007B6803F585531A807B6893ED047A7B6844
:1003A80003F584531C331B8807EE903AF8EEE76A8E
:1003B8007B68D3ED017A76EEE77A27EE277A7B68B9
:1003C80003F586530C33D3ED007A77EE677A7B68B2
:1003D80003F585530C33C3ED007A7B6893ED057AFA
:1003E8007B6803F584531E331B8807EE903AF8EEBA
:1003F800E76A7B68D3ED027A76EEE77A27EE277A0A
:100408007B6803F586531033D3ED007A77EE677A6D
:100418007B6803F585531033C3ED007A7B6893ED51
:10042800067A7B6803F585531B8807EE903AF8EE49
:10043800E76A7B68D3ED037A76EEE77A27EE277AC8
:100448007B6803F586531433D3ED007A77EE677A29
:100458007B6803F585531433C3ED007A7B6803F595
:10046800855304334FF000021A607B6803F5875305
:1004780004331A687B6803F5875304331B681B68C9
:100488001B681046984702467B6803F583530C3374
:100498001A607B68D3ED157A77EEA77A9FED8A7A92
:1004A80027EE877A7B6803F586530433D3ED007A09
:1004B80027EE277A7B6803F583530C331B6807EE16
:1004C800903AF8EEE77A67EE277A7B6803F583536C
:1004D8001433C3ED007A7B6893ED157A7B6803F5D6
:1004E80083530C331A687B6803F5835310331B68F6
:1004F800D31A07EE903AF8EEE77A27EE277A7B6868
:1005080003F586530433D3ED007ADFED706A67EEA6
:10051800A66A7B6803F5865308331B6807EE903A92
:10052800F8EEE77A66EEA77A67EE277A7B6803F536
:1005380083531833C3ED007A7B6803F58453D3EDF6
:10054800007AB7EE007A37EE677A7B6803F5835353
:100558001C33D3ED007A27EE277A7B6803F58453A2
:10056800D3ED006A7B6803F583531833D3ED007A23
:1005780066EEA77A77EE277A7B6803F583531C33F8
:10058800C3ED007A7B6803F583530C331A687B68E4
:1005980003F5835310331A607B6803F583530C33D8
:1005A8001A687B6803F585531C331B68D31A07EE5A
:1005B800903AF8EEE77A7B6803F584530C33C3ED81
:1005C800007A7B6803F584530C33D3ED007A9FEDF2
:1005D800407A27EE877A7B6803F586530433D3ED98
:1005E800007A67EE277AC7ED097AD7ED097AFDEE2A
:1005F800E77A17EE903A1BB29BB2C3F309037B84E8
:100608007B6803F58253183393ED007A7B8C7A6804
:1006180016339B001344D3ED007A67EE277AC7EDB3
:10062800077A7B6803F58453043393ED007A7B687B
:1006380003F583530C331A687B6803F586531B68EC
:10064800D31A07EE903AF8EEE77A27EE277A7B6816
:1006580003F586530433D3ED007ADFED1C6A67EEA9
:10066800A67A67EE277A7B6803F585531833C3EDBE
:10067800007A7B6803F58453183393ED007A7B681E
:1006880003F584531033D3ED006AD7ED077A76EE7D
:10069800A77A67EE277A7B6803F585530833C3ED9D
:1006A800007A7B6803F583531A687B6803F58553E2
:1006B80004331946104600F035F80346BB6109E0DB
:1006C8000001005000040050D00F4940D00FC9402D
:1006D800000080447B6803F5835308331B78042BA0
:1006E80011D107F10C0300221A605A609A607B68E6
:1006F80003F5835304331B6807F10C0211461846AF
:1007080000F0CAF90AE07B6803F5835304331A68DA
:10071800BB6918331946104600F0BEF900BF2837E8
:10072800BD4680BDB0B596B000AF786039603B6813
:100738005A697B685A613B681A687B68DA603B686B
:100748005A687B681A613B689B687B613B68DB6819
:10075800BB613B681B69FB617B6893ED057A7B682D
:100768001B8807EE903AF8EEE77A67EE277AC7ED2E
:10077800157A97ED150A00F0E1F9B0EE407AF0EE3F
:10078800607A87ED037AC7ED047A07F10C033B65BD
:1007980007F10C030433FB649FEDB27AD7ED057AB9
:1007A80027EE277ADFEDB06AD7ED067A66EEA77AEC
:1007B80037EE277ADFEDAC6AD7ED077A66EEA77ACF
:1007C80077EE277AC7ED127A9FEDA87AD7ED057AEA
:1007D80027EE277ADFEDA66AD7ED067A66EEA77AC6
:1007E80037EE277ADFEDA36AD7ED077A66EEA77AA8
:1007F80077EE277AC7ED117A9F4B93ED007AD7ED04
:10080800127A27EE277A9C4BD3ED007AF7EE006A2E
:1008180076EEE76A994BD3ED007A66EEA77A77EE23
:10082800277AC7ED127A954ABB6C1360924B93ED09
:10083800007AD7ED117A27EE277A8F4BD3ED007A1D
:10084800F7EE006A76EEE76A8D4BD3ED007A66EE36
:10085800A77A77EE277AC7ED117A894A7B6C1360FD
:10086800FB6C93ED007AD7ED127A27EE277A3B6D71
:10087800D3ED006AD7ED117A66EEA77A77EE677A3C
:10088800C7ED107A3B6D93ED007AD7ED127A27EE1B
:10089800277AFB6CD3ED006AD7ED117A66EEA77A5A
:1008A80077EE277AC7ED0F7A764B93ED007AD7ED7E
:1008B800107A27EE277A734BD3ED007AF7EE006AA9
:1008C80076EEE76A704BD3ED007A66EEA77A77EE9C
:1008D800277AC7ED107A6C4A3B6C1360694B93ED2D
:1008E800007AD7ED0F7A27EE277A664BD3ED007A98
:1008F800F7EE006A76EEE76A644BD3ED007A66EEAF
:10090800A77A77EE277AC7ED0F7A604AFB6B1360F8
:100918004FF00003BB637B681B69184600F0B8FA08
:1009280004460D4600F0B8FA07EE900AF8EEE77AAA
:100938009FED577AC7EE876A16EE900A00F0A8FA7C
:100948004FF00002534B00F09BFA02460B4620463C
:10095800294600F091FA03460C461846214600F055
:100968009FFA03467B63FB6C93ED007AD7ED0E7A12
:1009780027EE277A3B6DD3ED006AD7ED0D7A66EE48
:10098800A77A77EE277AC7ED0C7A3B6DD3ED007A1C
:10099800B1EE677AD7ED0E7A27EE277AFB6CD3EDA6
:1009A800006AD7ED0D7A66EEA77A77EE277AC7ED5B
:1009B8000B7A9FED2C7AD7ED0C7A27EE277ADFEDAC
:1009C8002B6AD7ED0B7A66EEA77A77EE277AC7ED12
:1009D8000A7A9FED257AD7ED0C7A27EE277ADFED94
:1009E800246AD7ED0B7A66EEA77A77EE277AC7EDF9
:1009F800097A9FED1D7AD7ED0C7A27EE277ADFED7D
:100A08001D6AD7ED0B7A66EEA77A77EE277AC7EDDF
:100A1800087A7B68BA6A5A627B687A6A9A627B68E3
:100A28003A6ADA627B68BA6B1A637B687A6B5A63D4
:100A38007B683A6C9A617B68FA6BDA6197ED057AA4
:100A4800D7ED067A37EE277AD7ED077A77EE277A49
:100A58007B68C3ED087A7B680C3318465837BD4667
:100A6800B0BD00BFABAA2A3FABAAAABE00000000D7
:100A78003ACD133F3ACD13BFE40000207022002086
:100A880074220020E0000020682200206C22002050
:100A98000000004F0000E03F80B483B000AF7860F2
:100AA80039603B6893ED007A7B68D3ED067A27EED0
:100AB800277A7B685B8807EE903AF8EEE77A77EE5C
:100AC800277A7B685B68FCEEE77A17EE902A1A6053
:100AD8003B68043393ED007A7B68D3ED067A27EE02
:100AE800277A7B685B8807EE903AF8EEE77A77EE2C
:100AF800277A7B689B68FCEEE77A17EE902A1A60E3
:100B08003B68083393ED007A7B68D3ED067A27EECD
:100B1800277A7B685B8807EE903AF8EEE77A77EEFB
:100B2800277A7B68DB68FCEEE77A17EE902A1A6072
:100B380000BF0C37BD465DF8047B704780B48FB0AA
:100B480000AF87ED030AD7ED037A9FED537A67EE7E
:100B5800877AC7ED0D7AD7ED0D7AFDEEE77A17EEB5
:100B6800903A3B633B6B07EE903AF8EEE77A97EDE5
:100B78000D7A77EE677AC7ED0B7AD7ED0B7A9FED92
:100B8800477A67EE877AC7ED0A7A3B6BC3F30803A7
:100B98003B63434A3B6B9B0013441B687B62414A9F
:100BA8003B6B9B0013441B683B6297ED0A7AD7EDB9
:100BB800087A27EE277AD7ED097A37EE277AD7ED24
:100BC8000A7AF6EE006A67EEA66AD7ED0A7A66EE4A
:100BD800A76AD7ED097A66EEA77A37EE677AD7ED76
:100BE8000A7ADFED316A67EEA66AD7ED0A7A66EE11
:100BF800A76AD7ED0A7A66EEA76AD7ED087A66EE95
:100C0800A77A77EE677AC7ED047A97ED0A7AD7ED77
:100C1800097A67EE277A97ED087A37EE677AD7ED83
:100C28000A7AF6EE006A67EEA66AD7ED0A7A66EEE9
:100C3800A76AD7ED087A66EEA77A37EE677AD7ED16
:100C48000A7ADFED196A67EEA66AD7ED0A7A66EEC8
:100C5800A76AD7ED0A7A66EEA76AD7ED097A66EE33
:100C6800A77A77EE277AC7ED057A07F1180307F117
:100C7800100292E8030083E80300BA69FB6907EEF3
:100C8800102A07EE903AB0EE470AF0EE670A3C37B2
:100C9800BD465DF8047B70478CF9A242D00F493CF1
:100CA800E8000020E8080020ABAA2A3E80B483B000
:100CB80000AF78607B68DB6918460C37BD465DF885
:100CC800047B704780B584B000AF78607B6893F888
:100CD800303083F00103DBB2002B06D0786800F0D7
:100CE800D3F87B68012283F83020394B1B6803F066
:100CF8000103002B05D0374B1B6803F00203002BC0
:100D080001D0012300E00023002B5DD07B681B6924
:100D18005A1C7B681A617B681B69022BCCBF0123B4
:100D28000023DBB2002B4FD07B6800221A61284BCE
:100D38001B68274A23F001031360274B1B68264AC8
:100D480023F001031360234B66225A60204B0422D0
:100D58005A60214B04225A601D4B1B681C4A43F001
:100D6800010313601C4B1B681B4A43F0010313600B
:100D78007B689B8CDA00194B13407A68D28C52132B
:100D88001A437B685A617B685A697B689B69D31AE6
:100D9800FB607B685A697B689A61FB68B3F5003F22
:100DA80004DDFB68A3F58023FB6007E0FB6813F50F
:100DB800003F03DAFB6803F58023FB607B68DA6990
:100DC800FB681A447B68DA6100BF1037BD4680BDF6
:100DD80008000240000002401C000240F8FF030027
:100DE80080B584B000AF78607B689B689B6803F02F
:100DF8000103002B0CBF01230023DBB2002B00D022
:100E0800F2E77B689B68DB68FB8100BF00BF00BF1F
:100E180000BF7B68DB68184600F02AF8B7F90E3087
:100E280018461037BD4680BD80B582B000AF7860E7
:100E38007B68DB68184600F03BF800BF00BF00BFC6
:100E480000BF00BF00BF00BF00BF00BF00BF00BFA2
:100E580000BF00BF7B689B680022DA6000BF0837CC
:100E6800BD4680BD000000005FF800F0CFF000082C
:100E78005FF800F00DF700085FF800F08D12000829
:100E88005FF800F01D0F00085FF800F0E5FD0008AE
:100E98005FF800F0DD1100085FF800F0B10C010800
:100EA8005FF800F0F11600085FF800F0D5F10008CF
:080EB8005FF800F033F70008B9
:100EC00010B5054C237833B9044B13B10448AFF384
:100ED00000800123237010BD581100200000000085
:100EE000280E010808B5034B1BB103490348AFF3B3
:100EF000008008BD000000005C110020280E0108E1
:100F000010F8012B11F8013B012A28BF9A42F7D0B3
:100F1000D01A704781F0004102E000BF83F0004327
:100F200030B54FEA41044FEA430594EA050F08BF84
:100F300090EA020F1FBF54EA000C55EA020C7FEA48
:100F4000645C7FEA655C00F0E2804FEA5454D4EBC5
:100F50005555B8BF6D420CDD2C4480EA020281EA8F
:100F6000030382EA000083EA010180EA020281EAC7
:100F70000303362D88BF30BD11F0004F4FEA013119
:100F80004FF4801C4CEA113102D0404261EB410128
:100F900013F0004F4FEA03334CEA133302D05242AE
:100FA00063EB430394EA050F00F0A780A4F101046A
:100FB000D5F1200E0DDB02FA0EFC22FA05F28018A4
:100FC00041F1000103FA0EF2801843FA05F359418A
:100FD0000EE0A5F120050EF1200E012A03FA0EFC09
:100FE00028BF4CF0020C43FA05F3C01851EBE37133
:100FF00001F0004507D54FF0000EDCF1000C7EEB50
:1010000000006EEB0101B1F5801F1BD3B1F5001F8D
:101010000CD349085FEA30004FEA3C0C04F10104AC
:101020004FEA445212F5800F80F09A80BCF1004FD5
:1010300008BF5FEA500C50F1000041EB045141EA57
:10104000050130BD5FEA4C0C404141EB010111F458
:10105000801FA4F10104E9D191F0000F04BF014603
:101060000020B1FA81F308BF2033A3F10B03B3F1E1
:1010700020020CDA0C3208DD02F1140CC2F10C0271
:1010800001FA0CF021FA02F10CE002F11402D8BFCF
:10109000C2F1200C01FA02F120FA0CFCDCBF41EA9B
:1010A0000C019040E41AA2BF01EB0451294330BD6A
:1010B0006FEA04041F3C1CDA0C340EDC04F1140447
:1010C000C4F1200220FA04F001FA02F340EA03001E
:1010D00021FA04F345EA030130BDC4F10C04C4F164
:1010E000200220FA02F001FA04F340EA0300294644
:1010F00030BD21FA04F0294630BD94F0000F83F48E
:10110000801306BF81F480110134013D4EE77FEA70
:10111000645C18BF7FEA655C29D094EA050F08BFBC
:1011200090EA020F05D054EA000C04BF194610469D
:1011300030BD91EA030F1EBF0021002030BD5FEAE1
:10114000545C05D14000494128BF41F0004130BD09
:1011500014F580043CBF01F5801130BD01F000455D
:1011600045F0FE4141F470014FF0000030BD7FEAD0
:10117000645C1ABF194610467FEA655C1CBF0B46CB
:10118000024650EA013406BF52EA033591EA030FE2
:1011900041F4002130BD00BF90F0000F04BF0021DA
:1011A000704730B54FF4806404F132044FF000050D
:1011B0004FF0000150E700BF90F0000F04BF002186
:1011C000704730B54FF4806404F1320410F00045EC
:1011D00048BF40424FF000013EE700BF42004FEAE7
:1011E000E2014FEA31014FEA02701FBF12F07F4364
:1011F00093F07F4F81F06051704732F07F4208BF1B
:10120000704793F07F4F04BF41F40021704730B521
:101210004FF4607401F0004521F000411CE700BF6D
:1012200050EA010208BF704730B54FF000050AE0F0
:1012300050EA010208BF704730B511F0004502D5F1
:10124000404261EB41014FF4806404F132045FEAF3
:10125000915C3FF4D8AE4FF003025FEADC0C18BF9C
:1012600003325FEADC0C18BF033202EBDC02C2F18E
:10127000200300FA03FC20FA02F001FA03FE40EA20
:101280000E0021FA02F11444BDE600BF70B54FF024
:10129000FF0C4CF4E06C1CEA11541DBF1CEA135502
:1012A00094EA0C0F95EA0C0F00F0DEF82C4481EA6A
:1012B000030621EA4C5123EA4C5350EA013518BF8A
:1012C00052EA033541F4801143F4801338D0A0FB77
:1012D00002CE4FF00005E1FB02E506F00042E0FB24
:1012E00003E54FF00006E1FB03569CF0000F18BF2A
:1012F0004EF0010EA4F1FF04B6F5007F64F54074D2
:1013000004D25FEA4E0E6D4146EB060642EAC62164
:1013100041EA55514FEAC52040EA5E504FEACE2ED1
:10132000B4F1FD0C88BFBCF5E06F1ED8BEF1004FD4
:1013300008BF5FEA500E50F1000041EB045170BD50
:1013400006F0004646EA010140EA020081EA030194
:10135000B4EB5C04C2BFD4EB0C0541EA045170BD90
:1013600041F480114FF0000E013C00F3AB8014F10A
:10137000360FDEBF002001F0004170BDC4F1000453
:10138000203C35DA0C341BDC04F11404C4F12005D4
:1013900000FA05F320FA04F001FA05F240EA02002F
:1013A00001F0004221F0004110EBD37021FA04F665
:1013B00042EB06015EEA430E08BF20EAD37070BD1F
:1013C000C4F10C04C4F1200500FA04F320FA05F07E
:1013D00001FA04F240EA020001F0004110EBD37080
:1013E00041F100015EEA430E08BF20EAD37070BDF0
:1013F000C4F1200500FA05F24EEA020E20FA04F3C9
:1014000001FA05F243EA020321FA04F001F0004177
:1014100021FA04F220EA020000EBD3705EEA430EE8
:1014200008BF20EAD37070BD94F0000F0FD101F017
:101430000046400041EB010111F4801F08BF013C50
:10144000F7D041EA060195F0000F18BF704703F08E
:101450000046520043EB030313F4801F08BF013D15
:10146000F7D043EA0603704794EA0C0F0CEA1355D1
:1014700018BF95EA0C0F0CD050EA410618BF52EA8B
:101480004306D1D181EA030101F000414FF0000091
:1014900070BD50EA410606BF1046194652EA43069F
:1014A00019D094EA0C0F02D150EA013613D195EA13
:1014B0000C0F05D152EA03361CBF104619460AD15B
:1014C00081EA030101F0004141F0FE4141F4700165
:1014D0004FF0000070BD41F0FE4141F4780170BD55
:1014E00070B54FF0FF0C4CF4E06C1CEA11541DBFBA
:1014F0001CEA135594EA0C0F95EA0C0F00F0A7F8BC
:10150000A4EB050481EA030E52EA03354FEA0131E8
:1015100000F088804FEA03334FF0805545EA1313FB
:1015200043EA12634FEA022245EA111545EA1065C3
:101530004FEA00260EF000419D4208BF964244F15A
:10154000FD0404F5407402D25B084FEA3202B61A79
:1015500065EB03055B084FEA32024FF480104FF44D
:10156000002CB6EB020E75EB030E22BFB61A7546C1
:1015700040EA0C005B084FEA3202B6EB020E75EB54
:10158000030E22BFB61A754640EA5C005B084FEABC
:101590003202B6EB020E75EB030E22BFB61A754689
:1015A00040EA9C005B084FEA3202B6EB020E75EB94
:1015B000030E22BFB61A754640EADC0055EA060E55
:1015C00018D04FEA051545EA16754FEA06164FEA98
:1015D000C30343EA52734FEAC2025FEA1C1CC0D144
:1015E00011F4801F0BD141EA00014FF000004FF0D1
:1015F000004CB6E711F4801F04BF01430020B4F192
:10160000FD0C88BFBCF5E06F3FF6AFAEB5EB030C49
:1016100004BFB6EB020C5FEA500C50F1000041EB46
:10162000045170BD0EF0004E4EEA113114EB5C0413
:10163000C2BFD4EB0C0541EA045170BD41F48011E6
:101640004FF0000E013C90E645EA060E8DE60CEAEE
:10165000135594EA0C0F08BF95EA0C0F3FF43BAF0B
:1016600094EA0C0F0AD150EA01347FF434AF95EAC2
:101670000C0F7FF425AF104619462CE795EA0C0FA6
:1016800006D152EA03353FF4FDAE1046194622E773
:1016900050EA410618BF52EA43067FF4C5AE50EA4D
:1016A00041047FF40DAF52EA43057FF4EBAE12E73D
:1016B0004A0011D212F5001211D20DD56FF47873D1
:1016C000B3EB62520ED44FEAC12343F0004343EA26
:1016D000505323FA02F070474FF00000704750EA71
:1016E000013002D14FF0FF3070474FF000007047DB
:1016F0004FEA4102B2F1E04324BFB3F5001CDCF134
:10170000FE5C0DD901F0004C4FEAC0024CEA50706B
:10171000B2F1004F40EB830008BF20F0010070479A
:1017200011F0804F21D113F13872BCBF01F000409D
:10173000704741F480114FEA5252C2F11802C2F1CF
:10174000200C10FA0CF320FA02F018BF40F0010050
:101750004FEAC1234FEAD32303FA0CFC40EA0C0002
:1017600023FA02F34FEA4303CCE77FEA625307D13F
:1017700050EA01331EBF4FF0FE4040F44000704776
:1017800001F0004040F0FE4040F40000704700BF10
:1017900053B94AB9002908BF00281CBF4FF0FF31D8
:1017A0004FF0FF3001F0EEB8ADF1080C6DE904CE5A
:1017B00000F006F8DDF804E0DDE9022304B070472C
:1017C0002DE9F047089E04468846002B40F08580AE
:1017D0008A42154648D9B2FA82F24AB1C2F12007CC
:1017E00001FA02F320FA07F7954047EA030894400C
:1017F0004FEA154E230CB8FBFEF71FFA85FC0EFBD3
:10180000178843EA084307FB0CF1994209D9EB1802
:1018100007F1FF3080F0E380994240F2E080023F20
:101820002B445B1AA4B2B3FBFEF00EFB103344EA68
:10183000034400FB0CFCA44509D92C1900F1FF332B
:1018400080F0CB80A44540F2C88002382C4440EAA6
:101850000740A4EB0C0400271EB1D4400023C6E9C6
:1018600000433946BDE8F087002A53D0B2FA82F22D
:10187000002A40F0B680491B4FEA154E1FFA85F842
:101880000127B1FBFEFC230C0EFB1C1143EA0143B4
:1018900008FB0CF1994207D9EB180CF1FF3002D28A
:1018A000994200F2EC808446591AA3B2B1FBFEF0D3
:1018B0000EFB101443EA044408FB00F8A04507D9C6
:1018C0002C1900F1FF3302D2A04500F2DC8018464B
:1018D000A4EB080440EA0C40BEE78B4208D9002E76
:1018E00078D00027C6E9000138463946BDE8F087C0
:1018F000B3FA83F77FB98B4202D3824200F2BD80F4
:10190000841A61EB030301209846002EA9D0C6E992
:101910000048A6E7FFDEC7F12005BB4022FA05FC20
:101920004CEA030C01FA07F420FA05F821FA05F352
:101930004FEA1C4E48EA0404B3FBFEF9210C0EFBEF
:1019400019331FFA8CF841EA034309FB08FA9A4558
:1019500002FA07F200FA07F10BD91CEB030309F1B5
:10196000FF3080F088809A4540F28580A9F1020915
:101970006344A3EB0A03A4B2B3FBFEF00EFB1033E7
:1019800044EA034400FB08F8A04508D91CEB040412
:1019900000F1FF336BD2A04569D90238644440EAB4
:1019A0000940A4EB0804A0FB02894C45C6464B46FF
:1019B00054D351D0002E69D0B1EB0E0264EB030476
:1019C00004FA05F522FA07F3FC401D43C6E900546A
:1019D000002746E73746304643E7184637E70746CD
:1019E0001FE7C2F1200320FA03F7954001FA02F045
:1019F00021FA03F34FEA154E3843010CB3FBFEF70F
:101A00001FFA85F80EFB173341EA034107FB08F381
:101A10008B4204FA02F407D9691807F1FF3C28D277
:101A20008B4226D9023F2944CB1A81B2B3FBFEF088
:101A30000EFB103341EA034100FB08F38B4207D948
:101A4000691800F1FF3C10D28B420ED902382944AC
:101A5000C91A40EA074714E74145ABD2B8EB020E7A
:101A600069EB0C0201381346A4E76046F0E718461C
:101A700095E76746D8E781467BE7384645E7ACF10E
:101A8000020C2B4410E702382C4421E73746E8E6E5
:101A900003685A004CBF43F0004323F0004318444E
:101AA000704700BF69B32DE9F04701F1FF391746D0
:101AB0000646C8464FF0000A0AEB080404EBD4744B
:101AC0006410E50071190846FFF7E2FFA1450346DF
:101AD00005F10800304409D0BB4209D8FFF7D8FF10
:101AE0000138B8420AD204F1010AE5E7BB4205D940
:101AF000A24502D004F1FF38DEE700210846BDE828
:101B0000F0870846704700BF012807D0022807D099
:101B1000044B00280CBF184600207047024870474D
:101B200002487047E5210008E9210008ED2100087E
:101B300030B5244B83B004468D1E4BB301A9284613
:101B4000AFF30080F0B101992A46FFF7ABFF0146E1
:101B5000C0B1FFF79DFF4B68A064012B2ED0002B76
:101B600001F1040026DBFFF793FF0023C4E9130310
:101B70000368002B12DBFFF78BFF00232061184660
:101B800003B030BD002323610923184603B030BDE4
:101B90000D490E48091AC9100191D5E7C3F3036036
:101BA000FFF7B2FF002814BF002309232061184665
:101BB00003B030BD0123C4E91303D9E70023236137
:101BC0000523DCE70000000070130108C0110108C4
:101BD0000368DA0710B5044606D49B0700F14800F5
:101BE00009D500F059FC2368590709D51A070ED505
:101BF000DB0613D510BD00F047FC23685907F5D468
:101C000004F1D00000F050FC23681A07F0D404F56A
:101C1000A87000F051FC2368DB06EBD404F5E870F3
:101C2000BDE8104000F08CBC036803B103441846C3
:101C3000704700BF09207047704700BF70B5044669
:101C40000D46296C2046FFF773FF064688B92B6CBA
:101C500063612A4623692146012098470828F0D06D
:101C6000072806D13046296CFFF7E6FF281D00F053
:101C7000FFFB0EF015FF00BF2DE9F0470C1D0546D8
:101C800017460FCCADF5727D03AE0FC60FCC0FC655
:101C90000FCC0FC694E80F0002ACD5F80C80D5F835
:101CA000189086E80F0000232846216C2360FFF778
:101CB0003FFF002F064614BF0A27092746BB236CA7
:101CC0006B614FF4F07221467AA80EF033FF2B6956
:101CD0007AAA294638469847889B8246CDE900492A
:101CE000394663642A462B460120C047D8B94FF4D1
:101CF000F0727AA920460EF01DFFBAF1080F18D134
:101D0000216C2846FFF714FF06460927002ED6D07F
:101D1000A36B47F01001CDE900492A466364012016
:101D20002B46C04700B1092630460DF5727DBDE84F
:101D3000F087BAF1070FF6D13046216CFFF77CFF30
:101D400003A800F095FB00BF406C7047F0B5CB6B6B
:101D50000B640E1D0F4604460FCEF9B001AD0FC542
:101D60000FCE0FC50FCE0FC596E80F004FF0FF3610
:101D700085E80F00009606E023696A4621469847E9
:101D80000828054608D110992046FFF7D1FE002803
:101D9000F2D0092079B0F0BD6846FFF719FF062D93
:101DA000F7D139462046FFF749FF00BF30B4DD6B5D
:101DB000C160826119461D64002230BC5CE700BF2F
:101DC00070B5C66843690B64AEB903690A46044638
:101DD0000D46014602209847072805D008280FD154
:101DE00029462046FFF72AFF3046296CFFF724FFDB
:101DF000281D00F03DFB0122FFF73EFF0EF050FED4
:101E00000EF04EFEC2681AB1CA6B0A64002233E7B4
:101E10009CE700BF704700BF836813B101460120F3
:101E200018477047042910D8DFE801F005030F03B5
:101E300003000120704743B90F2A06D800EB820245
:101E400018465368009A136070470220704700BF1D
:101E500010B584B0002303AC0A4600941946FFF77E
:101E6000E1FF039804B010BD042910D8DFE801F0A9
:101E700005030F0303000120704743B90F2A06D85A
:101E800000EB8200009A12684260184670470220F8
:101E9000704700BF10B584B0002303AC03920094D8
:101EA0000A461946FFF7E0FF04B010BDF0B5D36B4A
:101EB0001364151D07460E460FCDADF50F7D17AC0B
:101EC0000FC40FCD0FC40FCD0FC495E80F004FF016
:101ED000FF3584E80F00169510E016A8FFF7DAFF2B
:101EE000314616A8B84716AA694678B9049B082057
:101EF0009847052804460AD0092807D0269968463D
:101F0000FFF716FE6A460C210028E6D0092416A821
:101F1000FFF75EFE20460DF50F7DF0BD2DE9F04F79
:101F2000CC6C89B00D4654F8041B0694174600F09B
:101F300003081E46002B61D00B0CDAB209048DF8A1
:101F40001D30022304EB820405918DF81C302B6DAB
:101F5000B8F1020F08BFAC6B13F0010378D1019305
:101F600000F008030293D4F800A0BAF1000F00F0CB
:101F70001B81022E3ED0B4F800A0B4F802900434C5
:101F8000AA6C29F0010B0F2138469344FFF760FF3C
:101F900083452DD82AF001025A44824294BF002082
:101FA00001204FEA490303F002030AF0010A43EA61
:101FB0000A03012B30D03BB3022B15D1236823F049
:101FC000004BB8F1000F4DD130B1029A002A6DD00C
:101FD000BBF1000F00F0A080002B00DA04340BF1FD
:101FE000010B04EB8B04BEE7092009B0BDE8F08FBC
:101FF0000020D6E7D4F804900834C1E7090203238F
:102000000591ADF81C30A2E7B8F1000F02D000280E
:1020100040F09D800434A6E7B8F1000F2CD1A8B1A0
:10202000D4E90023991C4FEAD272DDD005F15801A2
:102030000133049100F09E80201DFFF7F5FD04ABF5
:10204000014628460EF086FB00286FD108348AE747
:10205000384605A900F00EFB0028C5D1082009B0BC
:10206000BDE8F08F0D213846D5F82090FFF7F0FE3F
:10207000814540D02368AFE70D213846D5F8209040
:10208000FFF7E6FE8145E1D1AB6A9C42DED12046F6
:10209000FFF7FEFC0F2102463846FFF7FBFE3846ED
:1020A0002A460021FFF7F6FE07209EE7BBF1000F4E
:1020B00032D005F15803CDF80C8004F10409B04684
:1020C000DDF808A01E4601E0DA4525D04846049612
:1020D000FFF7AAFD04AB0146002228460EF03AFBAA
:1020E0000AF1010A09F104090028EDD046462368E7
:1020F000DDF80C8070E7AB6A9C42BBD104224FF044
:102100000009A318C5E90AB9C5E90C2323684B45A2
:1021100038DB0123019362E738460D21FFF798FE73
:10212000049B2862C5E9093406205EE781460D213B
:102130003846FFF78DFEB9F1020F28621FD12B46FA
:10214000049A43F82C2F6B62AC6206204DE72046C0
:10215000FFF79EFC04340646AC6328460EF058FB9D
:1021600000283FF441AF384632460F21FFF792FE78
:1021700007203AE738460D21FFF76AFE2862049BE4
:102180006B62E1E70BF1010004EB8000FFF780FCDC
:102190000F2102463846FFF77DFE38462A4649465B
:1021A000FFF778FE072020E705A9384600F062FA1D
:1021B00000287FF419AF019B002B3FF44FAF0F2194
:1021C0003846FFF745FE0E2102463846FFF762FE0D
:1021D0003846034A0F21FFF75DFE072005E700BFE1
:1021E000F5050108002399E6012397E6022395E609
:1021F0002DE9F0410546C4B0042900F2B380DFE8C0
:1022000001F09551B12B0300002B40F0AB80102A58
:1022100000F2A8802B68DC0600F1008122AC204689
:10222000019200F097F9AE6B019A0023012707FA9B
:1022300003F11142304604D050F8041B44F8231037
:1022400006460133042BF2D12046AE6300F078F944
:10225000002044B0BDE8F081032B40F08380160CD1
:1022600097B2F319102B7DD82B681A0700F1E08084
:1022700022AC204600F042F904EBC600A96B4FB136
:102280000346FA001044CE1A9F5943F8047B834258
:10229000FAD111442046A96300F00EF9002044B0A1
:1022A000BDE8F081012B4FEA12461FFA82F855D0A3
:1022B000052B57D106EB0807202F53D80F2E55D9E1
:1022C0004746B8F1000F64D14046A96BB8F1000F42
:1022D00000F0BA8022AC002704EBC604043C01EBFA
:1022E000C00251F8040B44F8040F9142F9D17FB1B8
:1022F00002AC102E304638BF102004EBC0008438EA
:1023000002EBC70152F8044B40F8044F9142F9D157
:10231000012B00F095800F2EA9636BD917B102A88D
:1023200000F0C2F8002044B0BDE8F081D3B9AC6B36
:1023300097B2012605F1040C06FA03F13942204652
:1023400004D050F8041B4CF8231004460133102B22
:10235000F2D112F40050E5D1AC6304E006EB0802C0
:10236000102A28D9022044B0BDE8F081102F7CD972
:10237000103F2A68D0070AD5284622F0010242F011
:10238000020240F8482B019300F08AF8019B002FCD
:102390005CD02A68510737D40F2E2FD902AC2046C3
:1023A000019300F085F8C6F110000028A96B019B8D
:1023B00048DD22AC90E70F2ED4D82A68D10708D583
:1023C000284622F0030240F8482B019300F060F801
:1023D000019B019322AC204600F05AF84046A96BBD
:1023E000019B00287FF477AF0431A963204600F0F9
:1023F0004BF897E722A800F04FF88FE722A8019347
:1024000000F04EF8019BC9E7284622F0040240F88C
:10241000D02B019300F04CF8019BBDE723F0100393
:102420002B6005F5E870019200F094F8019AF5E64A
:1024300023F008032B6005F5A87000F05FF817E79C
:1024400022ACD1E70A4654E7474664E70F2E3FF631
:102450003BAF22AC2046019300F022F84046A96B26
:10246000019B00287FF437AF55E7002781E700BFC5
:1024700000F1340191E838009C46A6464CF8045D12
:1024800090E8FF0FE54600BD90EC210B704700BFC0
:1024900080EC210B704700BF90EC200B704700BF11
:1024A00080EC200B704700BFD0EC200B704700BFC2
:1024B000C0EC200B704700BFF0EC0201F0EC021101
:1024C000F0EC0221F0EC0231F0EC0241F0EC0251B0
:1024D000F0EC0261F0EC0271F0EC0281F0EC0291A0
:1024E000F0EC02A1F0EC02B1F0EC02C1F0EC02D190
:1024F000F0EC02E1F0EC02F1704700BFE0EC020109
:10250000E0EC0211E0EC0221E0EC0231E0EC0241EF
:10251000E0EC0251E0EC0261E0EC0271E0EC0281DF
:10252000E0EC0291E0EC02A1E0EC02B1E0EC02C1CF
:10253000E0EC02D1E0EC02E1E0EC02F1704700BF18
:10254000B0FC0181B0FC0191B0FC01A1B0FC01B173
:10255000704700BFA0FC0181A0FC0191A0FC01A17B
:10256000A0FC01B1704700BFEC4600B52DE900505A
:102570002DE9FF1F4FF000032DE90C0001A9FFF723
:10258000E5FBDDF840E012B0704700BFEC4600B557
:102590002DE900502DE9FF1F4FF000032DE90C003D
:1025A00001A9FFF70DFCDDF840E012B0704700BF55
:1025B000EC4600B52DE900502DE9FF1F4FF0000358
:1025C0002DE90C0001A9FFF71DFCDDF840E012B079
:1025D000704700BFEC4600B52DE900502DE9FF1F04
:1025E0004FF000032DE90C0001ABFFF7DFFBDDF836
:1025F00040E012B0704700BFEC4600B52DE9005036
:102600002DE9FF1F4FF000032DE90C0001AAFFF791
:102610004DFCDDF840E012B0704700BF027A82B98D
:10262000437AABB14268013B10B443721368032193
:10263000141D01721A02446002605DF8044B180E0A
:1026400070470368013A02721A020260180E70475E
:10265000B020704700B585B003AA00230092194648
:102660000C22FFF7DFFB039805B05DF804FB00BF09
:10267000F0E700BF2DE9F043054685B00E464FF068
:1026800000083046FFF7CAFFB028044600F0B280C9
:10269000070620D500F0F003802B4DD0902B36D0CC
:1026A000A02B60D0B02B74D0C02B00F08B8000F03A
:1026B000F803D02B0BD100F00702013242F40022C4
:1026C000052301212846FFF793FD0028D9D00920D2
:1026D00005B0BDE8F0830DF10C0900231946870011
:1026E000CDF800900D222846FFF79CFBFFB2039B1C
:1026F000CDF80090043760064CBFDF1BFF180023A5
:1027000019460D2228460397FFF7AEFBB9E700F004
:102710000D030D2BDBD003AF002300F00F02194691
:1027200000972846FFF77EFB0023009719460D22ED
:102730002846FFF799FBA4E73046FFF76FFF240216
:102740000443B4F5004FC2D024010023A2B21946BD
:102750002846FFF74DFD0028B9D114F4004F18BFEB
:102760004FF001088DE7C24302F007034FF47F6288
:102770001A41010702F47F624FF0000348BF42F4A0
:10278000804219462846FFF733FD00283FF479AF11
:102790009DE7B12833D0B22800F0A080B32841D003
:1027A00000F0FC03B42B92D000F0070201320123A9
:1027B00042F4002219462846FFF71AFD00283FF48C
:1027C00060AF84E7C62851D0C7285AD000F0F8037C
:1027D000C02B69D0C82875D0C9287FF478AF30469F
:1027E000FFF71CFF020300F00F0002F4702201301B
:1027F000024365E7B8F1000F27D0002068E73046B4
:10280000FFF70CFF00283FF462AF10F0F0037FF4F5
:102810005EAF024619462846FFF7EAFC00283FF45F
:1028200030AF54E73046FFF7F9FE010300F00F0028
:1028300001F47021421C01230A4328461946FFF780
:10284000D7FC00283FF41DAF41E703AC43460E22FE
:10285000414600942846FFF7E5FA0094284643468F
:102860000F224146FFF700FB404631E73046FFF7B5
:10287000D5FE010300F00F0001F47021421C032378
:10288000DAE73046FFF7CAFE00283FF420AF10F029
:10289000F0037FF41CAF024604212846FFF7A8FC92
:1028A00000283FF4EEAE12E700F00F0201320323DE
:1028B00042F4202219462846FFF79AFC00283FF4EC
:1028C000E0AE04E73046FFF7A9FE00F0F00200F0AA
:1028D0000F031032013343EA0232F1E600230DF117
:1028E0000C090D221946CDF800902846FFF79AFAF8
:1028F0003046FFF793FE02064FF002070CD5039B0C
:1029000000F07F00B840034430460393FFF786FE93
:10291000030607F10707F2D4039BCDF8009000F0FF
:102920007F0403F50172BC400023144419460D22B4
:1029300028460394FFF798FAA3E600BF10B5C36CCE
:1029400084B05A6803208DF80C00DC798DF80D40B6
:1029500012020833084601A901920293FFF78AFE8A
:1029600004B010BD08B5FFF783FE806C08BD00BF42
:1029700008B5FFF77DFEC06CC379023300EB83001E
:1029800008BD00BF704700BF80B500AF00220E49F0
:102990000E4808F017F80346002B01D00BF092FF09
:1029A0000B490A4808F039F80346002B01D00BF018
:1029B00089FF064808F04BF80346002B01D00BF0C6
:1029C00081FF00BF80BD00BF04000020E83400206C
:1029D0007C00002080B58AB000AF786007F1140356
:1029E00000221A605A609A60DA601A617B681B687C
:1029F0001B4A93422FD11B4BDB6C1A4A43F0010355
:102A0000D364184BDB6C03F001033B613B694FF46B
:102A1000C0537B610223BB610023FB6100233B6247
:102A200007F1140319464FF0904000F04DFF0D4B95
:102A30009B6D0C4A43F4000393650A4B9B6D03F4B2
:102A40000003FB60FB6800220021142007F06FFFE9
:102A5000142007F086FF00BF2837BD4680BD00BFA9
:102A6000005C00400010024080B582B000AF78608A
:102A70007B68D3F870227B6803F50C731946104607
:102A800008F02EF800BF0837BD4680BD80B582B083
:102A900000AF78600B46FB707B68D3F87002FB7860
:102AA0007A685B01134403F59E731A68FB78194634
:102AB00008F061F800BF0837BD4680BD80B582B020
:102AC00000AF78600B46FB707B68D3F87002FB7830
:102AD0007A685B0113443C331A68FB78194608F0A6
:102AE000BBF800BF0837BD4680BD80B582B000AFDF
:102AF00078607B68D3F87032184608F0CEF900BFD2
:102B00000837BD4680BD80B584B000AF7860012332
:102B1000FB737B689B68022B01D00BF0D3FE7B68B4
:102B2000D3F87032FA7B1146184608F07BF97B68BF
:102B3000D3F87032184608F034F900BF1037BD469C
:102B400080BD000080B582B000AF78607B68D3F8AC
:102B50007032184608F076F97B689B69002B05D027
:102B6000044B1B69034A43F00603136100BF083797
:102B7000BD4680BD00ED00E080B582B000AF78605A
:102B80007B689B69002B07D0084B1B69074A23F021
:102B90000603136100F095F97B68D3F8703218468C
:102BA00008F065F900BF0837BD4680BD00ED00E0C4
:102BB00080B582B000AF78602B4A7B68C2F8703273
:102BC0007B68294AC3F8C022274B284A1A60264B43
:102BD00008225A60244B02229A60234B02221A6177
:102BE000214B00225A61204B00229A611E4B002289
:102BF000DA611D4B00221A621B4801F022F80346DD
:102C0000002B01D00BF05EFE7B68D3F8C0021823C6
:102C10000022002101F012FF7B68D3F8C002582384
:102C20000022802101F00AFF7B68D3F8C002C02394
:102C30000022812101F002FF7B68D3F8C0024FF42B
:102C400088730022012101F0F9FE7B68D3F8C002ED
:102C50004FF480730022822101F0F0FE0023184619
:102C60000837BD4680BD00BFAC370020005C004087
:102C700080B584B000AF78600023FB730023BB7382
:102C80007B68D3F8C032184601F096F80346FB7310
:102C9000FB7B184600F01CF90346BB73BB7B184650
:102CA0001037BD4680BD80B584B000AF786008465F
:102CB00011461A460346FB700B46BB7013463B8019
:102CC0000023FB730023BB737B68D3F8C002BB787F
:102CD0003A88F97801F010FA0346FB73FB7B18463B
:102CE00000F0F6F80346BB73BB7B18461037BD46B1
:102CF00080BD80B584B000AF78600B46FB700023C8
:102D0000FB730023BB737B68D3F8C032FA7811469B
:102D1000184601F051FA0346FB73FB7B184600F09E
:102D2000D7F80346BB73BB7B18461037BD4680BD42
:102D300080B584B000AF78600B46FB700023FB7356
:102D40000023BB737B68D3F8C032FA78114618466B
:102D500001F0E7FA0346FB73FB7B184600F0B8F876
:102D60000346BB73BB7B18461037BD4680BD80B59C
:102D700084B000AF78600B46FB700023FB73002328
:102D8000BB737B68D3F8C032FA781146184601F05D
:102D900022FB0346FB73FB7B184600F099F80346C1
:102DA000BB73BB7B18461037BD4680BD80B485B071
:102DB00000AF78600B46FB707B68D3F8C032FB60D5
:102DC00097F90330002B08DAFB7803F07F03FA68E9
:102DD0005B0113442A331B7808E0FB7803F07F0380
:102DE000FA685B01134403F595731B781846143792
:102DF000BD465DF8047B704780B584B000AF786055
:102E00000B46FB700023FB730023BB737B68D3F876
:102E1000C032FA781146184601F049F90346FB73AF
:102E2000FB7B184600F054F80346BB73BB7B184687
:102E30001037BD4680BD80B586B000AFF8607A60BF
:102E40001A460B46FB7213463B810023FB75002399
:102E5000BB75FB68D3F8C0023B89F97A7A6801F048
:102E600027FA0346FB75FB7D184600F031F8034650
:102E7000BB75BB7D18461837BD4680BD80B586B092
:102E800000AFF8607A601A460B46FB7213463B812E
:102E90000023FB750023BB75FB68D3F8C0023B8998
:102EA000F97A7A6801F0CAF90346FB75FB7D18468A
:102EB00000F00EF80346BB75BB7D18461837BD46BB
:102EC00080BD80B500AF0AF083FF00BF80BD000069
:102ED00080B485B000AF0346FB710023FB73FB7920
:102EE000032B17D801A252F823F000BFFD2E0008D3
:102EF000032F0008092F00080F2F00080023FB7381
:102F00000BE00223FB7308E00123FB7305E00223BF
:102F1000FB7302E00223FB7300BFFB7B18461437F0
:102F2000BD465DF8047B704780B483B000AF0346B4
:102F30003960FB713B6812221A80034B18460C372C
:102F4000BD465DF8047B70472000002080B483B04C
:102F500000AF03463960FB713B6804221A80034BC3
:102F600018460C37BD465DF8047B704734000020DE
:102F700080B582B000AF03463960FB71FB79002B4E
:102F800005D13A680749084808F0D2FC04E03A68DD
:102F90000449054808F0CCFC024B18460837BD46EA
:102FA00080BD00BF203A0020480E010880B582B0E5
:102FB00000AF03463960FB713A680449044808F0E1
:102FC000B7FC024B18460837BD4680BD203A0020AA
:102FD000580E010880B582B000AF03463960FB711E
:102FE0003B681A221A8000F043F8024B1846083753
:102FF000BD4680BD3800002080B582B000AF0346DA
:103000003960FB71FB79002B05D13A680749084804
:1030100008F08EFC04E03A680449054808F088FC92
:10302000024B18460837BD4680BD00BF203A00203D
:103030005C0E010880B582B000AF03463960FB71B9
:10304000FB79002B05D13A680749084808F070FC65
:1030500004E03A680449054808F06AFC024B184647
:103060000837BD4680BD00BF203A0020680E010829
:1030700080B584B000AF0F4B1B68FB600E4B1B6824
:10308000BB600E4B1B687B60FA687B681344FB6077
:10309000FB68002B09D008220949F86800F014F8F1
:1030A00004220849B86800F00FF800BF1037BD4689
:1030B00080BD00BF9075FF1F9475FF1F9875FF1F9F
:1030C0003A0000204A00002080B487B000AFF860CA
:1030D000B9601346FB710023FB750023FB7527E0E5
:1030E000FB681B0F092B0BD8FB681B0FDAB2FB7DAB
:1030F0005B001946BB680B443032D2B21A700AE04A
:10310000FB681B0FDAB2FB7D5B001946BB680B4402
:103110003732D2B21A70FB681B01FB60FB7D5B008B
:103120000133BA68134400221A70FB7D0133FB752A
:10313000FA7DFB799A42D3D300BF1C37BD465DF8B8
:10314000047B704780B400AF034B5B681846BD46F4
:103150005DF8047B704700BF001000E080B400AF52
:10316000034B9B68DBB21846BD465DF8047B704795
:10317000001000E080B400AF034B5B69DBB218467F
:10318000BD465DF8047B7047001000E080B400AFDE
:1031900000BFBD465DF8047B704780B400AFFEE71A
:1031A00080B400AFFEE780B400AFFEE780B400AFAC
:1031B000FEE780B400AF00BFBD465DF8047B7047FA
:1031C00080B400AF00BFBD465DF8047B704780B49B
:1031D00000AF00BFBD465DF8047B704780B500AF0F
:1031E00006F08CF800BF80BD80B400AF00BFBD46C4
:1031F0005DF8047B7047000080B500AF024807F01F
:1032000005F900BF80BD00BFA43D002080B582B09D
:1032100000AF374B9B69364A43F008039361FFF7D1
:1032200091FF7860FFF79AFF0346FB70FFF7A2FF5C
:103230000346BB702F4B9B697B700CF057F92E4BEC
:103240001B685A1C2C490A6042F21072934204DD3A
:10325000294B00221A600CF087F9FFF77FFF034625
:103260001A46FB78D31ADAB2244B1A70244B1B6827
:103270001A68234B1B6822F020021A60FFF762FFD6
:1032800002467B68D31A1F4A1360FFF767FF0346A5
:103290001A46FB78D31ADAB21B4B1A70FFF76AFF93
:1032A00003461A46BB78D31ADAB2184B1A70114B80
:1032B0009B69DAB27B78D31ADAB2154B1A70114BCC
:1032C0001B689AB2104B1B789BB2D31A9AB20F4B61
:1032D0001B789BB2D31A9AB20E4B1A80044B9B698F
:1032E000034A43F40023936100BF0837BD4680BD05
:1032F00000080048001000E074110020223C00206B
:10330000043E0020243C0020283C0020293C0020D2
:10331000233C0020203C002080B500AF094B9B6976
:10332000084A43F0040393610CF01CFE064800F0C9
:1033300065FD044B9B69034A43F48023936100BFFE
:1033400080BD00BF00080048AC37002080B500AF4A
:103350004FF4005000F052FC00BF80BD80B500AFBC
:103360000621024803F048FB00BF80BDDC3E002080
:1033700080B400AF054B9B68044A23F480439360FC
:1033800000BFBD465DF8047B704700BF0070004081
:1033900080B582B000AF0F4B1B6E0E4A43F00103A5
:1033A00013660C4B1B6E03F001037B607B68094BBB
:1033B0009B6D084A43F080539365064B9B6D03F069
:1033C00080533B603B68FFF7D3FF00BF0837BD4623
:1033D00080BD00BF0010024080B58EB000AF7860A5
:1033E00007F1240300221A605A609A60DA601A61B9
:1033F0007B681B68B3F1A04F4ED15B4B1B68013358
:10340000594A1360584B1B68012B0BD1574BDB6C8F
:10341000564A43F40053D364544BDB6C03F400531B
:103420003B623B6A514BDB6C504A43F00103D3646F
:103430004E4BDB6C03F00103FB61FB694B4BDB6C18
:103440004A4A43F00203D364484BDB6C03F00203A7
:10345000BB61BB6901237B620323BB620023FB6268
:1034600007F1240319464FF0904000F02DFA022393
:103470007B620323BB620023FB6207F1240319462E
:103480003B4800F021FA00220021122007F04FFAF9
:10349000122007F066FA63E07B681B68354A9342A6
:1034A00035D1314B1B6801332F4A13602E4B1B68FB
:1034B000012B0BD12D4BDB6C2C4A43F40053D3640E
:1034C0002A4BDB6C03F400537B617B69274BDB6C7D
:1034D000264A43F00203D364244BDB6C03F002035F
:1034E0003B613B6904237B620323BB620023FB62D5
:1034F00007F1240319461E4800F0E6F900220021D6
:10350000122007F014FA122007F02BFA28E07B684B
:103510001B68194A934223D1144BDB6C134A43F4C2
:103520008043D364114BDB6C03F48043FB60FB6886
:103530000E4BDB6C0D4A43F00203D3640B4BDB6C88
:1035400003F00203BB60BB6801237B620323BB6201
:103550000023FB6207F124031946054800F0B4F983
:1035600000BF3837BD4680BD7811002000100240F2
:1035700000040048000100500004005080B584B0F1
:1035800000AF78607B681B680D4A934213D10D4BE6
:103590001B6E0C4A43F0806313660A4B1B6E03F0EC
:1035A0008063FB60FB6800220021432007F0BFF925
:1035B000432007F0D6F900BF1037BD4680BD00BFDD
:1035C000006801400010024080B58AB000AF78600A
:1035D00007F1140300221A605A609A60DA601A61D7
:1035E0007B681B68284A93424AD1284BDB6C274AE8
:1035F00043F00403D364254BDB6C03F004033B610D
:103600003B69224BDB6C214A43F00103D3641F4B1F
:10361000DB6C03F00103FB60FB68C0237B610223CA
:10362000BB610023FB6103233B620D237B6207F137
:1036300014031946164800F047F94FF440737B61B4
:103640000223BB610023FB6103233B6203237B62F4
:1036500007F1140319460E4800F036F94FF4407391
:103660007B610223BB610023FB6103233B620D23CB
:103670007B6207F1140319464FF0904000F024F9E3
:1036800000BF2837BD4680BD0068014000100240E1
:103690000008004880B58CB000AF786007F11C03CB
:1036A00000221A605A609A60DA601A617B681B68AF
:1036B0005A4A934229D15A4B9B6D594A43F480434D
:1036C0009365574B9B6D03F48043BB61BB69544BBF
:1036D000DB6C534A43F00203D364514BDB6C03F0C1
:1036E00002037B617B694FF47043FB6102233B6201
:1036F00000237B620023BB620523FB6207F11C03EE
:103700001946484800F0E0F883E07B681B68464AA9
:1037100093427ED1424B9B6D414A43F400439365F3
:103720003F4B9B6D03F400433B613B693C4BDB6CBF
:103730003B4A43F00403D364394BDB6C03F00403CE
:10374000FB60FB684FF4E053FB6102233B62002304
:103750007B620323BB620623FB6207F11C0319464D
:10376000324800F0B1F8324B324A1A60304B0E2228
:103770005A602F4B00229A602D4B0022DA602C4BAE
:1037800080221A612A4B4FF480725A61284B4FF401
:1037900080629A61264B0022DA61254B00221A6270
:1037A000234806F08BFD0346002B01D00BF08AF86E
:1037B0007B681F4A9A651E4A7B6893621E4B1F4AAC
:1037C0001A601D4B0F225A601B4B10229A601A4B35
:1037D0000022DA60184B80221A61174B4FF4807276
:1037E0005A61154B4FF480629A61134B0022DA61E3
:1037F000114B00221A62104806F060FD0346002BB0
:1038000001D00BF05FF87B680B4A5A650A4A7B6867
:10381000936200BF3037BD4680BD00BF0038004016
:103820000010024000040048003C0040000800482E
:103830006440002008000240A43D00201C0002401B
:1038400080B58AB000AF786007F1140300221A60D7
:103850005A609A60DA601A617B681B68174A934263
:1038600027D1174B1B6E164A43F480431366144B43
:103870001B6E03F480433B613B69114BDB6C104AC8
:1038800043F00403D3640E4BDB6C03F00403FB60D2
:10389000FB6830237B610223BB610023FB610023B3
:1038A0003B6207237B6207F114031946054800F0C9
:1038B0000BF800BF2837BD4680BD00BF003801406F
:1038C000001002400008004880B487B000AF786064
:1038D000396000237B615AE13B681A6801217B69EA
:1038E00001FA03F31340FB60FB68002B00F04C81EE
:1038F0003B685B68022B03D03B685B68122B23D1CB
:103900007B69DA087B68083253F822303B617B69B7
:1039100003F007039B000F2202FA03F3DB433A692B
:1039200013403B613B681A697B6903F007039B0006
:1039300002FA03F33A6913433B617B69DA087B6857
:103940000832396943F822107B681B683B617B6948
:103950005B00032202FA03F3DB433A6913403B6145
:103960003B685B6803F003027B695B0002FA03F3C8
:103970003A6913433B617B683A691A603B685B684C
:10398000012B0BD03B685B68022B07D03B685B6860
:10399000112B03D03B685B68122B30D17B689B688E
:1039A0003B617B695B00032202FA03F3DB433A6964
:1039B00013403B613B68DA687B695B0002FA03F302
:1039C0003A6913433B617B683A699A607B685B683C
:1039D0003B6101227B6902FA03F3DB433A6913403E
:1039E0003B613B685B681B0903F001027B6902FADB
:1039F00003F33A6913433B617B683A695A607B6819
:103A0000DB683B617B695B00032202FA03F3DB4363
:103A10003A6913403B613B689A687B695B0002FA34
:103A200003F33A6913433B617B683A69DA603B68A8
:103A30005B6803F08053002B00F0A6805B4B1B6E8D
:103A40005A4A43F001031366584B1B6E03F00103FF
:103A5000BB60BB68564A7B699B08023352F823302F
:103A60003B617B6903F003039B000F2202FA03F31F
:103A7000DB433A6913403B617B68B3F1904F1FD041
:103A80007B684C4A934219D07B684B4A934213D0CF
:103A90007B684A4A93420DD07B68494A934207D0DB
:103AA0007B68484A934201D105230AE0062308E0D7
:103AB000042306E0032304E0022302E0012300E0E4
:103AC00000237A6902F00302920093403A6913439B
:103AD0003B6137497B699B0802333A6941F82320EF
:103AE000394B1B683B61FB68DB433A6913403B6120
:103AF0003B685B6803F48033002B03D03A69FB68B2
:103B000013433B61304A3B6913602F4B5B683B6159
:103B1000FB68DB433A6913403B613B685B6803F435
:103B20000033002B03D03A69FB6813433B61264AFC
:103B30003B695360244B9B683B61FB68DB433A69FC
:103B400013403B613B685B6803F48013002B03D098
:103B50003A69FB6813433B611B4A3B6993601A4B0C
:103B6000DB683B61FB68DB433A6913403B613B68C0
:103B70005B6803F40013002B03D03A69FB6813431E
:103B80003B61114A3B69D3607B6901337B613B68D0
:103B90001A687B6922FA03F3002B7FF49DAE00BF05
:103BA0001C37BD465DF8047B704700BF0010024023
:103BB000000001400004004800080048000C0048D4
:103BC00000100048001400480004014080B483B095
:103BD00000AF78600B467B8013467B707B78002BB0
:103BE00003D07A887B689A6102E07A887B689A625F
:103BF00000BF0C37BD465DF8047B704780B582B0CE
:103C000000AF0346FB80084B5A69FB881340002B2A
:103C100006D0054AFB885361FB88184600F006F879
:103C200000BF0837BD4680BD0004014080B483B0AA
:103C300000AF0346FB8000BF0C37BD465DF8047B38
:103C40007047F0B58BB006AF78607B68002B01D170
:103C50000123ADE07B6893F82932DBB2002B06D15B
:103C60007B68002283F828227868FEF7B3FE7B6821
:103C7000032283F829227B681B68184600F069FF3D
:103C80000023FB7335E0FB7B7A685B011344293327
:103C900001221A70FB7B7A685B0113442833FA7B9C
:103CA0001A70FB7BFA7B91B27A685B01134436335E
:103CB0000A461A80FB7B7A685B0113442B3300228F
:103CC0001A70FB7B7A685B011344383300221A6058
:103CD000FB7B7A685B0113443C3300221A60FB7B58
:103CE0007A6802335B01134400221A60FB7B0133C4
:103CF000FB73FA7B7B685B689A42C4D30023FB7337
:103D000031E0FB7B7A685B01134403F22913002244
:103D10001A70FB7B7A685B01134403F59473FA7B9A
:103D20001A70FB7B7A685B01134403F22B130022A9
:103D30001A70FB7B7A685B01134403F59C730022C5
:103D40001A60FB7B7A685B01134403F59E730022C3
:103D50001A60FB7B7A680A335B01134400221A6005
:103D6000FB7B0133FB73FA7B7B685B689A42C8D3A9
:103D70007B681B683B607E686D4606F110040FCCC3
:103D80000FC523682B60331D0ECB386800F0FEFE94
:103D90007B68002283F824207B68012283F8292293
:103DA0007B68DB69012B02D1786800F084FE002378
:103DB00018461437BD46F0BD80B582B000AF7860BC
:103DC0007B6893F82832012B01D1022312E07B6833
:103DD000012283F828227B681B68184601F0A6FFA1
:103DE0007B681B68184600F09CFE7B68002283F805
:103DF0002822002318460837BD4680BD80B582B012
:103E000000AF78607B681B68184601F0A6FF034688
:103E100003F40043B3F5004F02D1786800F02AFBA9
:103E20007B681B68184601F098FF034603F4806323
:103E3000B3F5806F12D17B681B68B3F844309AB237
:103E40007B681B6822F4806292B2A3F844207868F1
:103E5000FEF759FE0021786800F029F97B681B689D
:103E6000184601F07AFF034603F48043B3F5804F10
:103E70000BD17B681B68B3F844309AB27B681B682F
:103E800022F4804292B2A3F844207B681B68184653
:103E900001F063FF034603F40053B3F5005F0BD159
:103EA0007B681B68B3F844309AB27B681B6822F4C5
:103EB000005292B2A3F844207B681B68184601F0B8
:103EC0004CFF034603F48053B3F5805F33D17B6826
:103ED0001B68B3F840309AB27B681B6822F004027A
:103EE00092B2A3F840207B681B68B3F840309AB2C6
:103EF0007B681B6822F0080292B2A3F840207B681E
:103F000093F86032012B07D17B68002283F860228E
:103F10000021786800F0F9FD7868FEF72DFE7B68D7
:103F20001B68B3F844309AB27B681B6822F4805255
:103F300092B2A3F844207B681B68184601F00DFF7D
:103F4000034603F40063B3F5006F31D17B681B684F
:103F5000B3F840309AB27B681B6842F0080292B214
:103F6000A3F840207B681B68B3F844309AB27B68A2
:103F70001B6822F4006292B2A3F844207B681B689D
:103F8000B3F840309AB27B681B6842F0040292B2E8
:103F9000A3F840207B681B68184601F0DEFE03464C
:103FA00003F48053B3F5805F02D07868FEF7CAFD52
:103FB0007B681B68184601F0D0FE034603F08003BF
:103FC000802B3FD17B681B68B3F844309AB27B6882
:103FD0001B6822F0800292B2A3F844207B6893F819
:103FE0006032002B2BD17B681B68B3F840309AB24B
:103FF0007B681B6842F0040292B2A3F840207B6801
:104000001B68B3F840309AB27B681B6842F0080224
:1040100092B2A3F840207B68012283F860227B687B
:104020001B68B3F854309BB29B0803F03C027B68DA
:10403000C3F864220121786800F067FD02E0786827
:10404000FEF780FD7B681B68184601F086FE03467C
:1040500003F40073B3F5007F0ED17B681B68B3F8DF
:1040600044309AB27B681B6822F4007292B2A3F8C3
:1040700044207868FEF739FD7B681B68184601F01C
:104080006CFE034603F48073B3F5807F0BD17B682D
:104090001B68B3F844309AB27B681B6822F48072C4
:1040A00092B2A3F8442000BF0837BD4680BD80B55A
:1040B00082B000AF78600B46FB707B6893F82832C3
:1040C000012B01D1022313E07B68012283F828220F
:1040D0007B68FA7883F824207B681B68FA7811469D
:1040E000184601F00FFE7B68002283F82822002387
:1040F00018460837BD4680BD80B584B000AF7860F3
:10410000084611461A460346FB700B463B80134691
:10411000BB700023FB7297F90330002B0BDAFB789E
:1041200003F007035B0128337A681344FB60FB68E4
:1041300001225A700BE0FB7803F007035B0103F5E3
:1041400094737A681344FB60FB6800225A70FB7812
:1041500003F00703DAB2FB681A703A88FB681A6149
:10416000FB68BA78DA70FB685B78002B04D0FB68D8
:104170001B789AB2FB68DA81BB78022B02D1FB680C
:1041800000221A717B6893F82832012B01D1022397
:104190000EE07B68012283F828227B681B68F9689F
:1041A000184600F017FD7B68002283F82822FB7A6E
:1041B00018461037BD4680BD80B584B000AF78602A
:1041C0000B46FB7097F90330002B0BDAFB7803F0FA
:1041D00007035B0128337A681344FB60FB68012204
:1041E0005A700BE0FB7803F007035B0103F594734F
:1041F0007A681344FB60FB6800225A70FB7803F076
:104200000703DAB2FB681A707B6893F82832012B37
:1042100001D102230EE07B68012283F828227B680B
:104220001B68F968184601F001F87B68002283F8E2
:104230002822002318461037BD4680BD80B586B0C1
:1042400000AFF8607A603B600B46FB72FB7A03F0CC
:1042500007035B0103F59473FA6813447B617B6980
:104260007A685A617B693A689A617B690022DA61EF
:104270007B6900225A70FB7A03F00703DAB27B698C
:104280001A70FB7A03F00703002B06D1FB681B684A
:104290007969184601F084F905E0FB681B687969C3
:1042A000184601F07DF9002318461837BD4680BD39
:1042B00080B586B000AFF8607A603B600B46FB7259
:1042C000FB7A03F007035B012833FA6813447B6130
:1042D0007B697A685A617B693A689A617B690022D6
:1042E000DA617B6901225A70FB7A03F00703DAB2C4
:1042F0007B691A70FB7A03F00703002B06D1FB6879
:104300001B687969184601F04BF905E0FB681B68EA
:104310007969184601F044F9002318461837BD465C
:1043200080BD80B584B000AF78600B46FB70FB7831
:1043300003F007027B685B689A4201D9012346E0DB
:1043400097F90330002B0BDAFB7803F007035B01CE
:1043500028337A681344FB60FB6801225A7009E035
:10436000FB785B0103F594737A681344FB60FB6888
:1043700000225A70FB6801229A70FB7803F0070351
:10438000DAB2FB681A707B6893F82832012B01D1EE
:1043900002231CE07B68012283F828227B681B68CB
:1043A000F968184601F0C0FBFB7803F00703002B07
:1043B00008D17B681A687B6803F50C7319461046B0
:1043C00001F0DBFC7B68002283F8282200231846DA
:1043D0001037BD4680BD80B584B000AF78600B4615
:1043E000FB70FB7803F00F027B685B689A4201D98F
:1043F00001233AE097F90330002B0BDAFB7803F046
:1044000007035B0128337A681344FB60FB680122D1
:104410005A700BE0FB7803F007035B0103F594731C
:104420007A681344FB60FB6800225A70FB68002224
:104430009A70FB7803F00703DAB2FB681A707B68A6
:1044400093F82832012B01D102230EE07B68012270
:1044500083F828227B681B68F968184601F0B2FBD4
:104460007B68002283F82822002318461037BD46B7
:1044700080BD000090B58DB000AF7860CCE27B6865
:104480001B68B3F84430FB84FB8CDBB203F00F03F2
:1044900087F8253097F82530002B40F08B81FB8C76
:1044A00003F01003002B54D19C4B1B6801339B4A33
:1044B00013607B681B681B889BB223F4E14323F0E5
:1044C00070039CB27B681A686FEA44436FEA5343F7
:1044D0009BB213807B6828333B627B681B68B3F810
:1044E00050309BB21A463B6A1B78DB0013447A6853
:1044F0001268134403F202431B88C3F309023B6AA8
:10450000DA613B6A5A693B6ADB691A443B6A5A6161
:1045100000217868FEF7D2FA7B6893F82430DBB28A
:10452000002B00F079823B6A9B69002B40F074827B
:104530007B6893F82430DBB263F07F03DAB27B68E8
:104540001B6892B2A3F84C207B68002283F82420D9
:1045500062E27B6803F594733B627B681B681B888F
:10456000FB836F4B1B6801336D4A1360FB8B03F4B5
:104570000063002B6DD06B4B1B680133694A1360DD
:104580007B681B68B3F850309BB21A463B6A1B78B5
:10459000DB0013447A681268134403F206431B8855
:1045A000C3F309023B6ADA617B6818687B6803F52C
:1045B0000C713B6ADA883B6ADB699BB201F02AFC2A
:1045C0007B681B681B889AB240F68F7313409CB2BD
:1045D0007B681B6844F0800292B21A807B68D3F833
:1045E000703293F8A83203F07F03002B2DD17B6843
:1045F000D3F8703293F8A932062B26D10123BB6180
:104600007B68D3F87032B3F8AA321B0A9BB2032B33
:104610001BD101237B617B68D3F8702207F108036B
:1046200002F52A7292E8030083E803007B89DBB27B
:1046300001229A403C4B1B6813433B4A13607B8921
:10464000DBB2002B01D001233B617868FEF70CFA46
:10465000E2E1B7F91E30002B80F2DE817B681B6837
:104660001B889AB240F68F7313409CB27B681B681C
:1046700044F0800292B21A807B681B68B3F8503015
:104680009BB21A463B6A1B78DB0013447A681268B7
:10469000134403F206431B88C3F309023B6ADA6141
:1046A0003B6ADB69002B19D03B6A5B69002B15D094
:1046B0007B6818683B6A59693B6ADA883B6ADB6940
:1046C0009BB201F0A7FB3B6A5A693B6ADB691A445B
:1046D0003B6A5A6100217868FEF7D8F97B681B684D
:1046E0001C467B681B68B3F850309BB21C4404F234
:1046F00006431C463B6A1B69002B17D123889BB2DB
:1047000023F4F8439BB2238023889BB26FEA434390
:104710006FEA53439BB2238036E000BF881100202C
:1047200084110020801100207C1100203B6A1B694D
:104730003E2B12D83B6A1B695B08BB623B6A1B6954
:1047400003F00103002B02D0BB6A0133BB62BB6ADA
:104750009BB29B029BB2238016E03B6A1B695B09FC
:10476000BB623B6A1B6903F01F03002B02D1BB6ACB
:10477000013BBB62BB6A9BB29B029BB26FEA4343A5
:104780006FEA53439BB223807B681B681B889BB2F4
:1047900023F4804323F070039CB284F480539CB2D2
:1047A00084F400539CB27B681A68A24B23439BB2EB
:1047B000138031E17B681B681A4697F825309B000F
:1047C00013441B88FB83B7F91E30002B80F2CE8088
:1047D0007B681B681A4697F825309B0013441B889A
:1047E0009AB240F68F7313409CB27B681B681A46DE
:1047F00097F825309B00134444F0800292B21A804F
:1048000097F825305B0103F594737A6813443B6293
:104810003B6A1B7B002B1FD17B681B68B3F85030B1
:104820009BB21A463B6A1B78DB0013447A68126815
:10483000134403F206431B88C3F30903FB85FB8D76
:10484000002B6ED07B6818683B6A59693B6ADA882E
:10485000FB8D01F0DFFA64E07B681B681A463B6A57
:104860001B789B0013441B889BB203F48043002BEE
:104870001FD07B681B68B3F850309BB21A463B6A66
:104880001B78DB0013447A681268134403F2024376
:104890001B88C3F30903FB85FB8D002B28D07B68A5
:1048A00018683B6A59693B6A1A89FB8D01F0B2FAB4
:1048B0001EE07B681B68B3F850309BB21A463B6A17
:1048C0001B78DB0013447A681268134403F2064332
:1048D0001B88C3F30903FB85FB8D002B08D07B6885
:1048E00018683B6A59693B6A5A89FB8D01F092FA54
:1048F0007B681B681A463B6A1B789B0013441B8825
:104900009BB223F4E04323F070039CB27B681B68E6
:104910001A463B6A1B789B001A44474B23439BB2C1
:1049200013803B6ADA69FB8D1A443B6ADA613B6AA1
:104930005A69FB8D1A443B6A5A613B6A9B69002B9A
:1049400004D0FA8D3B6A1B699A4206D23B6A1B78F7
:1049500019467868FEF79AF808E03B6A19783B6ACE
:104960005A693B6A9B697868FFF768FCFB8B03F028
:104970008003002B50D097F825305B0128337A68EC
:1049800013443B627B681B681A4697F825309B00EE
:1049900013441B889BB223F4E14323F070039CB2C1
:1049A0007B681B681A4697F825309B001A446FEA0B
:1049B00044436FEA53439BB213807B681B68B3F890
:1049C00050309BB21A463B6A1B78DB0013447A686E
:1049D0001268134403F202431B88C3F309023B6AC3
:1049E000DA613B6A5A693B6ADB691A443B6A5A617D
:1049F0003B6A9B69002B06D13B6A1B781946786895
:104A0000FEF75CF808E03B6A19783B6A5A693B6A32
:104A10009B697868FFF74CFC7B681B68B3F84430EF
:104A20009BB21BB2002BFFF62AAD00231846343789
:104A3000BD4690BD8080FFFFC080FFFF80B487B07F
:104A400000AFF8607B600B467B8113463B817B891E
:104A500003F080039BB2002B08D07B8903F007038F
:104A60005B012833FA6813447B6106E07B895B01B4
:104A700003F59473FA6813447B613B89002B07D1DB
:104A80007B6900221A737B689AB27B69DA800BE03B
:104A90007B6901221A737B689AB27B691A817B68F1
:104AA0001B0C9AB27B695A81002318461C37BD46FD
:104AB0005DF8047B704780B485B000AF78607B6898
:104AC0001B68FB607B680122C3F868227B680022B8
:104AD00083F86022FB68B3F854309BB243F00103C3
:104AE0009AB2FB68A3F85420FB68B3F854309BB229
:104AF00043F002039AB2FB68A3F85420002318463F
:104B00001437BD465DF8047B704780B483B000AFB6
:104B100078600B46FB7000BF0C37BD465DF8047B28
:104B2000704780B485B000AF78604BF68073FB812E
:104B30007B68B3F840309AB2FB8913439AB27B6822
:104B4000A3F84020002318461437BD465DF8047BC7
:104B5000704780B485B000AF78604BF68073FB81FE
:104B60007B68B3F840309BB21AB2B7F90E30DB4322
:104B70001BB213401BB29AB27B68A3F840200023FB
:104B800018461437BD465DF8047B704784B080B585
:104B900082B000AF786007F1140080E80E007B68F7
:104BA0000122A3F840207B680022A3F840207B6804
:104BB0000022A3F844207B680022A3F850207868E4
:104BC000FFF7AFFF002318460837BD46BDE8804019
:104BD00004B0704790B484B000AF786039600023AF
:104BE000FB737A683B681B789B0013441B889BB25D
:104BF00023F4EC4323F07003BB813B68DB78032B89
:104C000019D801A252F823F0194C00082D4C0008C5
:104C10003D4C0008234C0008BB8943F40073BB8162
:104C20000DE0BB8943F4C063BB8108E0BB8943F45A
:104C30008063BB8103E00123FB7300E000BF7A685F
:104C40003B681B789B001A44BB8943F07F4343F4C5
:104C50007F0343F4004343F080039BB213807A68E0
:104C60003B681B789B0013441B889BB21BB223F448
:104C7000E04323F070031AB23B681B781BB2134366
:104C80001BB29CB27A683B681B789B001A44964B17
:104C900023439BB213803B681B7B002B40F02A818F
:104CA0003B685B78002B7FD07C687B68B3F8503022
:104CB0009BB21C443B681B78DB00234403F58063F4
:104CC0001C463B68DB885B089BB25B009BB2238081
:104CD0007A683B681B789B0013441B889CB2234670
:104CE00003F04003002B14D07A683B681B789B00CC
:104CF00013441B889BB223F4E04323F070039CB25F
:104D00007A683B681B789B001A44784B23439BB21C
:104D100013803B68DB78012B24D000BF7A683B68A6
:104D20001B789B0013441B889BB203F03003302B8D
:104D3000F4D07A683B681B789B0013441B889BB2B5
:104D400023F4E04323F040039CB284F020039CB2A0
:104D50007A683B681B789B001A44634B23439BB2E1
:104D600013805BE200BF7A683B681B789B001344AA
:104D70001B889BB203F03003302BF4D07A683B6879
:104D80001B789B0013441B889BB223F4E04323F061
:104D900040039CB27A683B681B789B001A44524BD4
:104DA00023439BB2138039E27C687B68B3F85030B0
:104DB0009BB21C443B681B78DB00234403F2044392
:104DC0001C463B68DB885B089BB25B009BB2238080
:104DD0007C687B68B3F850309BB21C443B681B78FE
:104DE000DB00234403F206431C463B681B69002B8F
:104DF0000ED123889BB223F4F8439BB223802388EF
:104E00009BB26FEA43436FEA53439BB223802DE08A
:104E10003B681B693E2B12D83B681B695B08BB6073
:104E20003B681B6903F00103002B02D0BB68013310
:104E3000BB60BB689BB29B029BB2238016E03B68C1
:104E40001B695B09BB603B681B6903F01F03002BF8
:104E500002D1BB68013BBB60BB689BB29B029BB2AB
:104E60006FEA43436FEA53439BB223807A683B68FF
:104E70001B789B0013441B889CB2234603F4804399
:104E8000002B14D07A683B681B789B0013441B8866
:104E90009BB223F4E04323F070039CB27A683B6832
:104EA0001B789B001A44124B23439BB213807A68F1
:104EB0003B681B789B0013441B889BB223F4804300
:104EC00023F070039CB284F480539CB284F40053AA
:104ED0009CB27A683B681B789B001A44024B2343C0
:104EE0009BB213809AE100BF8080FFFFC080FFFF6C
:104EF00080C0FFFF7A683B681B789B0013441B88C7
:104F00009BB223F4E04323F070039CB27A683B68C1
:104F10001B789B001A44A24B23439BB213807C68EE
:104F20007B68B3F850309BB21C443B681B78DB00B5
:104F3000234403F580631C463B681B895B089BB2D6
:104F40005B009BB223807C687B68B3F850309BB2D7
:104F50001C443B681B78DB00234403F204431C46DB
:104F60003B685B895B089BB25B009BB223803B681C
:104F70005B78002B40F094807A683B681B789B003C
:104F800013441B889CB2234603F48043002B14D0A7
:104F90007A683B681B789B0013441B889BB223F400
:104FA000E04323F070039CB27A683B681B789B0057
:104FB0001A447C4B23439BB213807A683B681B786E
:104FC0009B0013441B889CB2234603F04003002B34
:104FD00014D07A683B681B789B0013441B889BB2F3
:104FE00023F4E04323F070039CB27A683B681B789B
:104FF0009B001A446C4B23439BB213807A683B6836
:105000001B789B0013441B889BB223F4E04323F0DE
:1050100070039CB27A683B681B789B001A44624B11
:1050200023439BB213807A683B681B789B00134430
:105030001B889BB223F4804323F070039CB284F45A
:1050400080539CB284F400539CB27A683B681B780E
:105050009B001A44554B23439BB2138000BF7A68D0
:105060003B681B789B0013441B889BB203F0300302
:10507000302BF4D07A683B681B789B0013441B8864
:105080009BB223F4E04323F040039CB27A683B6870
:105090001B789B001A44454B23439BB21380BDE011
:1050A0007A683B681B789B0013441B889CB223469C
:1050B00003F48043002B14D07A683B681B789B0074
:1050C00013441B889BB223F4E04323F070039CB28B
:1050D0007A683B681B789B001A44324B23439BB28F
:1050E00013807A683B681B789B0013441B889CB232
:1050F000234603F04003002B14D07A683B681B78EA
:105100009B0013441B889BB223F4E04323F07003FD
:105110009CB27A683B681B789B001A44224B23435D
:105120009BB213807A683B681B789B0013441B88F2
:105130009BB223F4E04323F070039CB27A683B688F
:105140001B789B001A44174B23439BB213803B6888
:10515000DB78012B2CD000BF7A683B681B789B0062
:1051600013441B889BB203F03003302BF4D07A68D1
:105170003B681B789B0013441B889BB223F4E043DD
:1051800023F040039CB284F020039CB27A683B6811
:105190001B789B001A44054B23439BB2138028E0E5
:1051A0008081FFFF80C0FFFFC080FFFF8080FFFF86
:1051B00000BF7A683B681B789B0013441B889BB236
:1051C00003F03003302BF4D07A683B681B789B00E7
:1051D00013441B889BB223F4E04323F040039CB2AA
:1051E0007A683B681B789B001A440F4B23439BB2A1
:1051F00013807A683B681B789B0013441B889BB222
:1052000023F4804323F070039CB27A683B681B78D8
:105210009B001A44044B23439BB21380FB7B18462C
:105220001037BD4690BC70478080FFFF90B482B0BD
:1052300000AF786039603B681B7B002B7DD13B68F9
:105240005B78002B42D07A683B681B789B00134444
:105250001B889CB2234603F04003002B14D07A68CD
:105260003B681B789B0013441B889BB223F4E043EC
:1052700023F070039CB27A683B681B789B001A4449
:10528000774B23439BB2138000BF7A683B681B783F
:105290009B0013441B889BB203F03003302BF4D0E7
:1052A0007A683B681B789B0013441B889BB223F4ED
:1052B000E04323F040039CB27A683B681B789B0074
:1052C0001A44684B23439BB213805CE17A683B68C5
:1052D0001B789B0013441B889CB2234603F4804335
:1052E000002B14D07A683B681B789B0013441B8802
:1052F0009BB223F4E04323F070039CB27A683B68CE
:105300001B789B001A44584B23439BB213807A6846
:105310003B681B789B0013441B889BB223F480439B
:1053200023F070039CB27A683B681B789B001A4498
:105330004C4B23439BB2138025E13B685B78002BE9
:1053400040F094807A683B681B789B0013441B886C
:105350009CB2234603F48043002B14D07A683B6848
:105360001B789B0013441B889BB223F4E04323F07B
:1053700070039CB27A683B681B789B001A443A4BD6
:1053800023439BB213807A683B681B789B001344CD
:105390001B889CB2234603F04003002B14D07A688C
:1053A0003B681B789B0013441B889BB223F4E043AB
:1053B00023F070039CB27A683B681B789B001A4408
:1053C000274B23439BB213807A683B681B789B0072
:1053D00013441B889BB223F4E04323F070039CB278
:1053E0007A683B681B789B001A441D4B23439BB291
:1053F00013807A683B681B789B0013441B889BB220
:1054000023F4804323F070039CB27A683B681B78D6
:105410009B001A44134B23439BB2138000BF7A684E
:105420003B681B789B0013441B889BB203F030033E
:10543000302BF4D07A683B681B789B0013441B88A0
:105440009BB223F4E04323F040039CB27A683B68AC
:105450001B789B001A44034B23439BB2138092E0BA
:10546000C080FFFF8080FFFF80C0FFFF7A683B683D
:105470001B789B0013441B889CB2234603F4804393
:10548000002B14D07A683B681B789B0013441B8860
:105490009BB223F4E04323F070039CB27A683B682C
:1054A0001B789B001A443B4B23439BB213807A68C2
:1054B0003B681B789B0013441B889CB2234603F077
:1054C0004003002B14D07A683B681B789B00134480
:1054D0001B889BB223F4E04323F070039CB27A68EC
:1054E0003B681B789B001A442B4B23439BB21380D1
:1054F0007A683B681B789B0013441B889BB223F49B
:10550000E04323F070039CB27A683B681B789B00F1
:105510001A44204B23439BB2138000BF7A683B6838
:105520001B789B0013441B889BB203F03003302B85
:10553000F4D07A683B681B789B0013441B889BB2AD
:1055400023F4E04323F040039CB27A683B681B7865
:105550009B001A44114B23439BB213807A683B682B
:105560001B789B0013441B889BB223F4804323F0D9
:1055700070039CB27A683B681B789B001A44074B07
:1055800023439BB21380002318460837BD4690BCC6
:10559000704700BF80C0FFFFC080FFFF8080FFFF1B
:1055A00090B58DB000AF786039603B685B78012BB7
:1055B00040F06C813B689A693B681B699A4209D943
:1055C0003B681B69BB623B689A69BB6AD21A3B683D
:1055D0009A6105E03B689B69BB623B6800229A6167
:1055E0003B681B7B002B19D13B6859693B68DA8803
:1055F000BB6A9BB2786800F0CCFB7C687B68B3F830
:1056000050309BB21C443B681B78DB00234403F200
:1056100002431C46BB6A9BB223800FE17A683B6859
:105620001B789B0013441B889BB203F04003002BA4
:1056300065D07C683B685B78002B48D17C687B68D0
:10564000B3F850309BB21C443B681B78DB0023440A
:1056500003F206431C46BB6A002B0ED123889BB283
:1056600023F4F8439BB2238023889BB26FEA434321
:105670006FEA53439BB223803DE0BB6A3E2B10D8B8
:10568000BB6A5B087B62BB6A03F00103002B02D09C
:105690007B6A01337B627B6A9BB29B029BB2238055
:1056A00029E0BB6A5B097B62BB6A03F01F03002B26
:1056B00002D17B6A013B7B627B6A9BB29B029BB2FD
:1056C0006FEA43436FEA53439BB2238013E03B6886
:1056D0005B78012B0FD17B68B3F850309BB21C4430
:1056E0003B681B78DB00234403F206433B61BB6A43
:1056F0009AB23B691A803B685B89FB8563E03B6833
:105700005B78002B48D17C687B68B3F850309BB243
:105710001C443B681B78DB00234403F202431C4615
:10572000BB6A002B0ED123889BB223F4F8439BB2B3
:10573000238023889BB26FEA43436FEA53439BB2B3
:1057400023803DE0BB6A3E2B10D8BB6A5B083B62FE
:10575000BB6A03F00103002B02D03B6A01333B62BA
:105760003B6A9BB29B029BB2238029E0BB6A5B0928
:105770003B62BB6A03F01F03002B02D13B6A013B73
:105780003B623B6A9BB29B029BB26FEA43436FEA68
:1057900053439BB2238013E03B685B78012B0FD10E
:1057A0007C687B68B3F850309BB21C443B681B7824
:1057B000DB00234403F202431C46BB6A9BB22380F6
:1057C0003B681B89FB853B685969BB6A9BB2FA8DB4
:1057D000786800F0DEFA3B685B78002B15D17A68B8
:1057E0003B681B789B0013441B889BB223F4E04367
:1057F00023F070039CB27A683B681B789B001A44C4
:10580000964B23439BB2138018E03B685B78012BD7
:1058100014D17A683B681B789B0013441B889BB2A9
:1058200023F4E04323F070039CB27A683B681B7852
:105830009B001A448A4B23439BB2138000BF7A68B3
:105840003B681B789B0013441B889BB203F030031A
:10585000302BF4D07A683B681B789B0013441B887C
:105860009BB223F4E04323F040039CB284F0100386
:105870009CB284F020039CB27A683B681B789B0042
:105880001A44784B23439BB2138046E13B689A69E4
:105890003B681B699A4209D93B681B69BB623B683C
:1058A0009A69BB6AD21A3B689A6105E03B689B69BA
:1058B000BB623B6800229A613B681B7B002B48D18E
:1058C0007C687B68B3F850309BB21C443B681B7803
:1058D000DB00234403F206431C46BB6A002B0ED1B7
:1058E00023889BB223F4F8439BB2238023889BB286
:1058F0006FEA43436FEA53439BB22380F2E0BB6AF3
:105900003E2B10D8BB6A5B08FB61BB6A03F0010346
:10591000002B02D0FB690133FB61FB699BB29B0248
:105920009BB22380DEE0BB6A5B09FB61BB6A03F0CC
:105930001F03002B02D1FB69013BFB61FB699BB29A
:105940009B029BB26FEA43436FEA53439BB22380AF
:10595000C8E03B685B78002B48D17C687B68B3F873
:1059600050309BB21C443B681B78DB00234403F29D
:1059700002431C46BB6A002B0ED123889BB223F442
:10598000F8439BB2238023889BB26FEA43436FEABC
:1059900053439BB223803DE0BB6A3E2B10D8BB6AC9
:1059A0005B08BB61BB6A03F00103002B02D0BB693B
:1059B0000133BB61BB699BB29B029BB2238029E090
:1059C000BB6A5B09BB61BB6A03F01F03002B02D1FA
:1059D000BB69013BBB61BB699BB29B029BB26FEA97
:1059E00043436FEA53439BB2238013E03B685B78E9
:1059F000012B0FD17C687B68B3F850309BB21C44FC
:105A00003B681B78DB00234403F202431C46BB6A5D
:105A10009BB223807C683B685B78002B4ED17C680E
:105A20007B68B3F850309BB21C443B681B78DB00AA
:105A3000234403F206431C46BB6A002B14D123887F
:105A40009BB223F4F8439BB2238023889BB26FEA76
:105A500043436FEA53439BB2238043E0C080FFFF80
:105A600080C0FFFF8080FFFFBB6A3E2B10D8BB6A5F
:105A70005B087B61BB6A03F00103002B02D07B69EA
:105A800001337B617B699BB29B029BB2238029E03F
:105A9000BB6A5B097B61BB6A03F01F03002B02D169
:105AA0007B69013B7B617B699BB29B029BB26FEA86
:105AB00043436FEA53439BB2238013E03B685B7818
:105AC000012B0FD17B68B3F850309BB21C443B686C
